:100000000D284C2A4E2A502ADE00030E8312BE0011
:100010000408BF000A08C000B7290E283230CE00FD
:100020002030831384003E3078228301182A023066
:10003000C20000307A200800B50A3608031D2128C6
:100040002228372833080319262827284A28340865
:1000500003192B282C28322835083402031831289C
:1000600032284A28B501B601B60A05154A283408CF
:1000700003193B283C284A28330803194028412803
:100080004728350833020318462847284A28B5016F
:10009000B6010511B90A3A08031D4F2850286528F2
:1000A000370803195428552878283808031959287F
:1000B0005A2860283908380203185F2860287828F1
:1000C000B901BA01BA0A051678283808031969284F
:1000D0006A287828370803196E286F287528390888
:1000E00037020318742875287828B901BA01051257
:1000F00019300800C40002304402031C8028812803
:100100008228CA284408C30001300310C30DFF3EF3
:10011000031D85280310430D333EC500BF28450845
:10012000840083138001450A84008001800ACA2864
:100130004508840083138001800A450A84004F30FB
:100140008000CA2845088400143083138000450AC3
:10015000840014308000CA28450884000A308313C4
:100160008000450A84000A308000CA2845088400BF
:1001700083138001800A450A84008001CA2842084E
:100180008400053004020318CA2802308A00863031
:100190000407820008004E08B10A31020318D12872
:1001A000D228D4280A303929B1018B132B08C90071
:1001B0002A08C8002908C7002808C6008B1723088A
:1001C0004902031DED2822084802031DED282108DD
:1001D0004702031DED28200846020318F028F128E5
:1001E000FA280430C20000307A200430C200013006
:1001F0007A20D22827084902031D08292608480228
:10020000031D082925084702031D08292408460262
:1002100003180B290C2915290230C20000307A205E
:100220000330C20001307A20D2283208031D192978
:100230001A292D294908031D2D291E304802031DA6
:10024000292984304702031D292981304602031DD4
:100250002929031C2C292D293129C20100307A209B
:100260003529C201C20A00307A20C20101307A2049
:10027000D2280800B101A001A101A201A301230815
:10028000A7002208A6002108A5002008A400C2019A
:10029000C20A00307A20C20101307A2008005329B6
:1002A000B001643068293008003A03195B29013A2B
:1002B000031962295029851C5E295F29602951296B
:1002C000B00A6921831285186629672950295129A6
:1002D00008008B132B08CB002A08CA002908C90084
:1002E0002808C8008B174B08C7004A08C6004908F1
:1002F000C5004808C4007D2108004708A30046083F
:10030000A2004508A1004408A0004408C20004302F
:10031000672283124508C20005306722831246080F
:10032000C2000630672283124708C20007306722E6
:100330000800043080228312C3000530802283121B
:10034000C400063080228312C50007308022831249
:10035000C6004608A3004508A2004408A1004308BF
:10036000A0000800083080228312CE0008000B1D78
:10037000CD297D3081023B30C1003E30410203185F
:10038000CC2941088400831300080319CA294108B5
:1003900084008003C10ABD290B110C1CDF29AC0AA3
:1003A0000319AD0A0319AE0A0319AF0A2F082E0468
:1003B0002D042C04031DDE290130B2000C100B1C8F
:1003C0000F2A85120B1010100F08A9000E08A800A4
:1003D0008F018E0110140C1CFD29AC0A0319AD0A03
:1003E0000319AE0A0319AF0A2F082E042D042C049A
:1003F000031DFC290130B2000C1032080319072A32
:10040000FF30A800A900AA00AB00B2010B2A2D08FA
:10041000AB002C08AA00AC01AD01AE01AF01400851
:100420008A003F0884003E0E8300DE0E5E0E090047
:100430005230831681008B13831285010730990097
:1004400083169F01233085002230950020309600CE
:100450008312900183160C140C1C312A8312101481
:10046000332A8312101017203A219921B221E0304B
:100470008B00640003308312CD0A4D020318CD01B6
:100480008B124D083B3E840083130008CC008B1672
:100490004C08031D392A532ACB20512A1C20512AEB
:1004A0004F21CC005E2A4D0884000330040203185B
:1004B000392A00308A000130040782008B124D086F
:1004C0003B3E84004C08831380008B16392AC300FE
:1004D00083169B008312420883169A001C158B1307
:1004E00055309D00AA309D009C141C118B170800EC
:1004F00064008001840A0406031900340406792A82
:10050000C20083169B001C141A0808008F28982824
:06051000A228AC28B62869
:08400000700075006C007300F4
:02400E004C3133
:1042000000000000000000000000000000000000AE
:104210003200FF00FF00FF00FF00FF00FF00FF0073
:00000001FF
