:020000000D28C9
:10000800DE00030E8312A0000408A1000A08A20063
:100018004A280E28A601A701830112285230831608
:100028008100831285010730990083169F012130D2
:100038008500203095009600E0308B000C140C1CD5
:100048002828831210142A2883121010640083129F
:10005800A50FA5018B122508273E840083130008ED
:10006800A4008B162408031D2A283D286B20A40011
:1000780042282508003A03193A282A288B1225080D
:10008800273E8400240880008B162A280B1D602830
:100098007D3081022730A3002830230203185F280F
:1000A800230884008313000803195D2823088400AB
:1000B8008003A30A50280B110B108B1022088A000A
:1000C80021088400200E8300DE0E5E0E09006F28D2
:1000D8000030A60108002608840003300402031833
:1000E8006C2800308A007D3004078200A601A60A29
:0800F80001347A287C287C28E1
:08400000700075006C007300F4
:02400E004C3133
:00000001FF
